:020000040000FA
:060000000A128A11122809
:10000800FE00030E83120313B0000408B1000A08AF
:10001800B2007F08B3000A128A11062C0A128A114C
:10002800152883120313A001A101A201A301A401B1
:10003800A501A601A701A801A901AA01AB01AC016C
:1000480083010A128A15A62D0330FD008A30FC00B0
:100058005530FB00FB0B2E28FC0B2E28FD0B2E2801
:100068003528A530F1008830F2000A128A154D278C
:100078000A128A110230FD004530FC00A930FB004D
:10008800FB0B4428FC0B4428FD0B44284B28DD308F
:10009800F1008830F2000A128A154D270A128A11D7
:1000A8000230FD004530FC00A930FB00FB0B5A284C
:1000B800FC0B5A28FD0B5A286128F030F1008830D3
:1000C800F2000A128A154D270A128A110230FD0021
:1000D8004530FC00A930FB00FB0B7028FC0B702896
:1000E800FD0B70287728C330F1008830F2000A121F
:1000F8008A154D270A128A11831203138C1E85282C
:100108008628802831301A06031D8B288C285B2B03
:100118000330FD008A30FC005530FB00FB0B9228B1
:10012800FC0B9228FD0B922899288230F100883028
:10013800F2000A128A154D270A128A110230FD00B0
:100148004530FC00A930FB00FB0BA828FC0BA828B5
:10015800FD0BA828AF281130F1008930F2000A12EF
:100168008A154D270A128A110230FD004530FC001D
:10017800A930FB00FB0BBE28FC0BBE28FD0BBE28DC
:10018800C5281E30F1008930F2000A128A154D2761
:100198000A128A110230FD004530FC00A930FB002C
:1001A800FB0BD428FC0BD428FD0BD428DB282B30E0
:1001B800F1008930F2000A128A154D270A128A11B5
:1001C800831203138C1EE928EA28E42861301A06F2
:1001D800031DEF28F028B9290030F1008830F2001B
:1001E8000A128A154D270A128A110230FD0045307D
:1001F800FC00A930FB00FB0BFF28FC0BFF28FD0BC4
:10020800FF2806295C30F1008930F2000A128A15AD
:100218004D270A128A110230FD004530FC00A93032
:10022800FB00FB0B1529FC0B1529FD0B15291C29B7
:100238007A30F1008930F2000A128A154D270A1225
:100248008A110230FD004530FC00A930FB00FB0B91
:100258002B29FC0B2B29FD0B2B293229C430F1004B
:100268008930F2000A128A154D270A128A110230C3
:10027800FD004530FC00A930FB00FB0B4129FC0BBD
:100288004129FD0B41294829B230F1008930F2009B
:100298000A128A154D270A128A110230FD004530CC
:1002A800FC00A930FB00FB0B5729FC0B5729FD0B61
:1002B80057295E298E30F1008930F2000A128A151A
:1002C8004D270A128A110230FD004530FC00A93082
:1002D800FB00FB0B6D29FC0B6D29FD0B6D297429A7
:1002E800831203138C1E79297A29742971301A060E
:1002F800031D7F29802985290A128A15C3250A1218
:100308008A117730831203131A06031D8C298D294D
:1003180092290A128A153E260A128A11653083121A
:1003280003131A06031D99299A299F290A128A1567
:10033800FC250A128A117230831203131A06031D50
:10034800A629A729AC290A128A15E5260A128A11B4
:100358007430831203131A06031DB329B429B9296B
:100368000A128A1583260A128A116230831203132D
:100378001A06031DC029C1298A2A0030F1008830D5
:10038800F2000A128A154D270A128A110230FD005E
:100398004530FC00A930FB00FB0BD029FC0BD02911
:1003A800FD0BD029D7298430F1008930F2000A12D8
:1003B8008A154D270A128A110230FD004530FC00CB
:1003C800A930FB00FB0BE629FC0BE629FD0BE6290F
:1003D800ED296630F1008930F2000A128A154D279E
:1003E8000A128A110230FD004530FC00A930FB00DA
:1003F800FB0BFC29FC0BFC29FD0BFC29032ACC3048
:10040800F1008930F2000A128A154D270A128A1162
:100418000230FD004530FC00A930FB00FB0B122A1E
:10042800FC0B122AFD0B122A192AA030F100893080
:10043800F2000A128A154D270A128A110230FD00AD
:100448004530FC00A930FB00FB0B282AFC0B282AAE
:10045800FD0B282A2F2AA930F1008930F2000A1250
:100468008A154D270A128A110230FD004530FC001A
:10047800A930FB00FB0B3E2AFC0B3E2AFD0B3E2A53
:10048800452A831203138C1E4A2A4B2A452A7A309E
:100498001A06031D502A512A562A0A128A15D625E9
:1004A8000A128A117830831203131A06031D5D2A73
:1004B8005E2A632A0A128A1555260A128A1167309B
:1004C800831203131A06031D6A2A6B2A702A0A125A
:1004D8008A1512260A128A117630831203131A0615
:1004E800031D772A782A7D2A0A128A15FE260A12FF
:1004F8008A116230831203131A06031D842A852A7F
:100508008A2A0A128A159B260A128A1163308312D4
:1005180003131A06031D912A922A5B2B0030F1005F
:100528008830F2000A128A154D270A128A11023001
:10053800FD004530FC00A930FB00FB0BA12AFC0B99
:10054800A12AFD0BA12AA82A7030F1008930F200F7
:100558000A128A154D270A128A110230FD00453009
:10056800FC00A930FB00FB0BB72AFC0BB72AFD0BDC
:10057800B72ABE2A5230F1008930F2000A128A15D1
:100588004D270A128A110230FD004530FC00A930BF
:10059800FB00FB0BCD2AFC0BCD2AFD0BCD2AD42A60
:1005A800D430F1008930F2000A128A154D270A1258
:1005B8008A110230FD004530FC00A930FB00FB0B1E
:1005C800E32AFC0BE32AFD0BE32AEA2A9730F10021
:1005D8008930F2000A128A154D270A128A11023050
:1005E800FD004530FC00A930FB00FB0BF92AFC0B91
:1005F800F92AFD0BF92A002BBB30F1008930F200F3
:100608000A128A154D270A128A110230FD00453058
:10061800FC00A930FB00FB0B0F2BFC0B0F2BFD0B79
:100628000F2B162B831203138C1E1B2B1C2B162B24
:1006380070301A06031D212B222B272B0A128A152C
:10064800E9250A128A116F30831203131A06031D53
:100658002E2B2F2B342B0A128A156C260A128A117C
:100668006930831203131A06031D3B2B3C2B412BC5
:100678000A128A1528260A128A1175308312031362
:100688001A06031D482B492B4E2B0A128A151727C9
:100698000A128A117930831203131A06031D552B87
:1006A800562B5B2B0A128A11E8270A128A1132305C
:1006B800831203131A06031D622B632BE62B3730B4
:1006C800F1008830F2000A128A154D270A128A11A1
:1006D8000230FD004530FC00A930FB00FB0B722BFB
:1006E800FC0B722BFD0B722B792B3830F100893003
:1006F800F2000A128A154D270A128A110230FD00EB
:100708004530FC00A930FB00FB0B882BFC0B882B29
:10071800FD0B882B8F2B0230F1008930F2000A1272
:100728008A154D270A128A110230FD004530FC0057
:10073800A930FB00FB0B9E2BFC0B9E2BFD0B9E2B6D
:10074800A52B4530F1008930F2000A128A154D2791
:100758000A128A110230FD004530FC00A930FB0066
:10076800FB0BB42BFC0BB42BFD0BB42BBB2B831254
:1007780003138C1EC02BC12BBB2B72301A06031D12
:10078800C62BC72BCC2B0A128A15B3260A128A113C
:100798006C30831203131A06031DD32BD42BD92BC9
:1007A8000A128A15CC260A128A117330831203138F
:1007B8001A06031DE02BE12BE62B0A128A15962553
:1007C8000A128A113330831203131A06031DED2B04
:1007D800EE2B052CA0015D30F1008830F2000A12E2
:1007E8008A154D270A128A110230FD004530FC0097
:1007F800A930FB00FB0BFE2BFC0BFE2BFD0BFE2B8D
:10080800052C08000C1F092C0A2C792D1F0CAD0093
:100818002D0C0F39003A031D122C132C492C1F08DC
:10082800C33904389F0006191A2C1B2C272C0A12CE
:100838008A1596250A128A11033083120313AD0014
:100848002D08A2006F2D06182A2C2B2C352C0A12E5
:100858008A15B3260A128A1183120313A201A20A67
:100868006F2D8618382C392C452C0A128A15CC265F
:100878000A128A11023083120313AD002D08A20058
:100888006F2D0910891009116F2D1F0CAD002D0C4B
:100898000F39013A031D512C522CAC2C1F08C339B7
:1008A80008389F001E08AD002D08A8003330280224
:1008B80003185F2C602C652C0A128A15C3250A12AE
:1008C8008A11663083120313280203186C2C6D2CCE
:1008D800782C33302802031C722C732C782C0A12C3
:1008E8008A153E260A128A119930831203132802A8
:1008F80003187F2C802C8B2C66302802031C852C37
:10090800862C8B2C0A128A15FC250A128A11CC30E7
:100918008312031328020318922C932C9E2C9930CF
:100928002802031C982C992C9E2C0A128A15E5265D
:100938000A128A11CC30831203132802031CA52C37
:10094800A62C6F2D0A128A1583260A128A116F2D7A
:100958001F0CAD002D0C0F39023A031DB42CB52C19
:100968000F2D1F08C3390C389F001E08AD002D0835
:10097800A700333027020318C22CC32CC82C0A1234
:100988008A15D6250A128A116630831203132702A4
:100998000318CF2CD02CDB2C33302702031CD52C8A
:1009A800D62CDB2C0A128A1555260A128A11993080
:1009B8008312031327020318E22CE32CEE2C663073
:1009C8002702031CE82CE92CEE2C0A128A151226A1
:1009D8000A128A11CC308312031327020318F52C4C
:1009E800F62C012D99302702031CFB2CFC2C012D21
:1009F8000A128A15FE260A128A11CC3083120313B2
:100A08002702031C082D092D6F2D0A128A159B2613
:100A18000A128A116F2D1F0CAD002D0C0F39033AE5
:100A2800031D172D182D6F2DC3309F051E08AD000F
:100A38002D08A600333026020318232D242D292D36
:100A48000A128A15E9250A128A11663083120313DD
:100A580026020318302D312D3C2D33302602031C7D
:100A6800362D372D3C2D0A128A156C260A128A114A
:100A780099308312031326020318432D442D4F2D5A
:100A880066302602031C492D4A2D4F2D0A128A155D
:100A980028260A128A11CC3083120313260203185F
:100AA800562D572D622D99302602031C5C2D5D2D85
:100AB800622D0A128A1517270A128A11CC3083125E
:100AC80003132602031C692D6A2D6F2D0A128A1141
:100AD800E8270A128A11831203130C132030831299
:100AE8000313AD00AD0B762D00000B1C7C2D7D2D66
:100AF800742F831203138619822D832DC42D061398
:100B080086161630AD002D08F00028080A128A153E
:100B180030270A128A11173083120313AD002D08EB
:100B2800F00027080A128A1530270A128A1118308D
:100B380083120313AD002D08F00026080A128A1547
:100B480030270A128A11193083120313AD002D08B9
:100B5800F00022080A128A1530270A128A11033077
:100B680083120313AF008A30AE005530AD00AD0BD1
:100B7800BB2DAE0BBB2DAF0BBB2D831203138612FF
:100B8800061AC72DC82D602F8612061716300A12AE
:100B98008A15B2250A128A1183120313AD002D0893
:100BA800A50017300A128A15B2250A128A11831273
:100BB8000313AD002D08A40018300A128A15B225B7
:100BC8000A128A1183120313AD002D08A3001930ED
:100BD8000A128A15B2250A128A1183120313AD006C
:100BE8002D08A100333025020318FB2DFC2D072EFC
:100BF8000A128A15C3250A128A111E30831203139A
:100C0800AD002D08A8006630250203180C2E0D2E05
:100C18001E2E33302502031C122E132E1E2E0A12EE
:100C28008A153E260A128A11463083120313AD0034
:100C38002D08A800993025020318232E242E352EBE
:100C480066302502031C292E2A2E352E0A128A15F3
:100C5800FC250A128A11823083120313AD002D0875
:100C6800A800CC30250203183A2E3B2E4C2E993082
:100C78002502031C402E412E4C2E0A128A15E52609
:100C88000A128A11AA3083120313AD002D08A80096
:100C9800CC302502031C512E522E5D2E0A128A15C5
:100CA80083260A128A11CD3083120313AD002D0852
:100CB800A800333024020318622E632E6E2E0A1207
:100CC8008A15D6250A128A111E3083120313AD0025
:100CD8002D08A700663024020318732E742E852E63
:100CE80033302402031C792E7A2E852E0A128A1597
:100CF80055260A128A11463083120313AD002D08B7
:100D0800A7009930240203188A2E8B2E9C2E663059
:100D18002402031C902E912E9C2E0A128A1512264C
:100D28000A128A116E3083120313AD002D08A70032
:100D3800CC3024020318A12EA22EB32E99302402FF
:100D4800031CA72EA82EB32E0A128A15FE260A12F5
:100D58008A11AA3083120313AD002D08A700CC30E6
:100D68002402031CB82EB92EC42E0A128A159B26FB
:100D78000A128A11CD3083120313AD002D08A70083
:100D8800333023020318C92ECA2ED52E0A128A150B
:100D9800E9250A128A111E3083120313AD002D08AB
:100DA800A600663023020318DA2EDB2EEC2E333031
:100DB8002302031CE02EE12EEC2E0A128A156C2663
:100DC8000A128A11463083120313AD002D08A600BB
:100DD800993023020318F12EF22E032F66302302D6
:100DE800031CF72EF82E032F0A128A1528260A123A
:100DF8008A11823083120313AD002D08A600CC306F
:100E080023020318082F092F1A2F99302302031CD5
:100E18000E2F0F2F1A2F0A128A1517270A128A1156
:100E2800AA3083120313AD002D08A600CC3023028C
:100E3800031C1F2F202F2B2F0A128A11E8270A12B2
:100E48008A11CD3083120313AD002D08A60003309C
:100E58002106031D302F312F362F0A128A159625A9
:100E68000A128A11831203132103031D3C2F3D2FFD
:100E7800422F0A128A15B3260A128A1102308312E7
:100E880003132106031D492F4A2F4F2F0A128A15D3
:100E9800CC260A128A110B3083120313AF002630B6
:100EA800AE005D30AD00AD0B572FAE0B572FAF0B1B
:100EB800572F831203130613861B632F642F732F78
:100EC800A001A00A6C2F0A128A1128200A128A117E
:100ED8008312031320030319722F732F672F0B102C
:100EE800831203133308FF0032088A003108840094
:100EF800300E8300FE0E7E0E0900F601F11F852FCD
:100F0800862F8D2FF009F109F00A0319F10AF6016D
:100F1800F60AF31F902F912F9A2FF209F309F20A7C
:100F28000319F30A0130F4007408F606F701F80112
:100F3800700871040319A12FA22FD92FF501F50A02
:100F4800B02F01300310F00DF10DFF3E031DA62F49
:100F58000130F4007408F507F11FB32FB42FA52F43
:100F680001300310F70DF80DFF3E031DB52F710872
:100F78007302031DC12F70087202031CC42FC52FF2
:100F8800CC2F7008F2027108031CF303F3027714E4
:100F980001300310F10CF00CFF3E031DCD2F013082
:100FA800F502031DD82FD92FB42F76080319DD2F8A
:100FB800DE2FE32FF709F809F70A0319F80A78086A
:100FC800F1007708F00008008312031308150330B6
:100FD800F1009730F000F00BEF2FF10BEF2FF42F0B
:100FE8008312031308111830F1005F30F000F00B82
:100FF800FB2FF10BFB2F08000A34203453346534DF
:101008006C3465346334633469346F346E346534F6
:10101800203465346E3474347234653420346C345E
:101028006F347334203473346934673475346934F5
:1010380065346E34743465342034703461347234F9
:101048006134203464346134723420346C34613453
:10105800203470346F3473346934633469346F34D2
:101068006E343A3400340A342034483461346334FA
:1010780069346134203464346F346E3464346534D4
:1010880020346434653473346534613420346D3409
:101098006F34763465347234203465346C342034DB
:1010A8006D346F3474346F3472343F3420340A34FE
:1010B80000340A34203448346134203466346934C6
:1010C8006E3461346C3469347A34613464346F3426
:1010D80020346C346134203463346F346D347534A7
:1010E8006E34693463346134633469346F346E3414
:1010F8002034553441345234543400340A342034C2
:101108004334753461346C342034643465342034A9
:101118006C346F34733420347334653472347634F9
:101128006F34733420346434653473346534613413
:1011380020346D346F347634653472343F340A3475
:1011480000340A3420345134753465342034613421
:101158006334633469346F346E34203464346534F2
:10116800733465346134203465346A3465346334E7
:10117800753474346134723420340A3400342834B9
:10118800333429342034533461346C346934723440
:101198002034643465346C3420346D346F346434F2
:1011A8006F342034553441345234543420340A34A2
:1011B800003428343134293420344D346F347634B3
:1011C80065347234203473346534723476346F3451
:1011D800733420340A340034283432342934203427
:1011E8004D346F3476346534723420346D346F3452
:1011F80074346F34723420340A3400340A3420349E
:101208006C343A34203449347A347134753469345E
:10121800653472346434613400340A3420346134FF
:101228002E34203453346534723476346F34203499
:10123800313400340A34203462342E3420345334A8
:101248006534723476346F342034323400340A34DE
:10125800203463342E342034533465347234763475
:101268006F342034333400340A34203472343A343E
:1012780020344434653472346534633468346134FA
:1012880000340A34203473343A3420344434653416
:10129800743465346E346534723400340A3420345E
:1012A8006F343A3420342D34393430342034003417
:1012B8000A34203471343A3420342D3439343034FB
:1012C800203400340A34203478343A3420342D342D
:1012D80039343034203400340A34203470343A3409
:1012E80020342D3434343534203400340A34203456
:1012F80077343A3420342D343434353420340034BF
:101308000A3420347A343A3420342D3434343534A1
:10131800203400340A34203474343A3420343934D4
:101328003034203400340A34203475343A342034CC
:1013380039343034203400340A34203476343A34A2
:10134800203439343034203400340A3420346234C0
:101358003A34203434343534203400340A342034D8
:1013680072343A34203434343534203400340A3476
:10137800203479343A342034343435342034003449
:101388000A34203465343A3420343034203400347C
:101398000A34203467343A3420343034203400346A
:1013A8000A34203469343A34203430342034003458
:1013B800FF1BE62983137F1883170008840A031983
:1013C800FF0A08007F087F398A000408840A031985
:0413D800FF0A820086
:101B2C008312031395019B0109150800F000831221
:101B3C0003130C1EA22DA32D9D2D700899000800D7
:101B4C000A128A1573270A128A15831203139F141B
:101B5C00AB2D0A128A111228F10071088312031797
:101B6C008D00831603178C130C14831203170C08A7
:101B7C00F0007008F20072080800831203130814B6
:101B8C00E930F000F00BC82D8312031308101A3043
:101B9C00F1000F30F000F00BD12DF10BD12D08001E
:101BAC00831203138814E930F000F00BDB2D831241
:101BBC00031388101A30F1000F30F000F00BE42DF5
:101BCC00F10BE42D0800831203130815E930F00023
:101BDC00F00BEE2D8312031308111A30F1000F30A5
:101BEC00F000F00BF72DF10BF72D08008312031307
:101BFC000814D630F000022E032EF00B012E00003C
:101C0C008312031308101930F1000530F000F00BAB
:101C1C000D2EF10B0D2E0800831203138814D630F1
:101C2C00F000182E192EF00B172E00008312031340
:101C3C0088101930F1000530F000F00B232EF10B59
:101C4C00232E0800831203130815D630F0002E2E15
:101C5C002F2EF00B2D2E00008312031308111930B8
:101C6C00F1000530F000F00B392EF10B392E080085
:101C7C00831203130814F930F000442EF00B432E9A
:101C8C00472E482E8312031308101930F1005830D8
:101C9C00F000F00B4F2EF10B4F2E000008008312BA
:101CAC0003138814F930F0005B2EF00B5A2E5E2EC5
:101CBC005F2E8312031388101930F1005830F00096
:101CCC00F00B662EF10B662E000008008312031336
:101CDC000815F930F000722EF00B712E752E762E41
:101CEC008312031308111930F1005830F000F00B77
:101CFC007D2EF10B7D2E00000800831203130814B7
:101D0C000330F1009730F000F00B8A2EF10B8A2E85
:101D1C008F2E8312031308101830F1005F30F0007F
:101D2C00F00B962EF10B962E0800831203138814D9
:101D3C000330F1009730F000F00BA22EF10BA22E25
:101D4C00A72E8312031388101830F1005F30F000B7
:101D5C00F00BAE2EF10BAE2E08000430F00000306C
:101D6C00F100831203131E08F900FA017908F2003E
:101D7C007A08F3000A128A1181270A128A15700850
:101D8C008312031395009B0109140800831203139B
:101D9C0095010430F0000030F1001E08F900FA0142
:101DAC007908F2007A08F3000A128A1181270A12C4
:101DBC008A157008831203139B0089140800831280
:101DCC0003130814F930F000EB2EEC2EF00BEA2E76
:101DDC00EF2EF02EF12E8312031308101830F100A1
:101DEC00B230F000F00BF82EF10BF82E00000800CA
:101DFC00831203138814F930F000042F052FF00B15
:101E0C00032F082F092F0A2F831203138810183061
:101E1C00F100B230F000F00B112FF10B112F00007C
:101E2C000800831203130815F930F0001D2F1E2F24
:101E3C00F00B1C2F212F222F232F83120313081199
:101E4C001830F100B230F000F00B2A2FF10B2A2FD2
:101E5C0000000800F1007008831203178D00710850
:101E6C008C00831603178C130C158B1355308D00B7
:101E7C00AA308D008C14831203130D1E462F472F8E
:101E8C00412F0D12831603170C118B13080073309E
:101E9C00F3007308F600582F77080A128A159C2550
:101EAC000A128A157208F4007108F300F10A03197A
:101EBC00F20A740883120313FF00730884000A12D9
:101ECC008A15DC210A128A15F5007508F7007708C7
:101EDC00031D712F722F522F080083160313061443
:101EEC00861406158615061683160317081488140F
:101EFC000815881589018316031305148514051517
:101F0C0085158612061309108910091108108810FE
:101F1C0008118812081388138113151495141515BC
:101F2C00951595170F128F160F170F14C3308312B8
:101F3C0003139F05203083120313B400B40BA42F9A
:101F4C000000831203131F179F131F148316031310
:101F5C009F139F121F12071587147D3092003F307C
:101F6C008312031397050F309D041708F0390C38B2
:101F7C0097000F309500CF3097050F309B001D1246
:101F8C009D128C101210921412158C1CCE2FCF2F68
:101F9C00CB2F8C1083160313071187100C17831289
:101FAC0003130C138B170B178316031396151616A6
:101FBC0096178B150B10673099009A01831603172F
:101FCC008715831603131815181283120313981709
:101FDC001816831603131813981683120313181369
:101FEC008B170B170C128C12850186018701880147
:041FFC00890108004F
:04400E00D420FF3F7C
:00000001FF
