:020000040000FA
:060000000A128A110C280F
:10000800FE00030EF1000A08F2000A128A1178288D
:100018000A128A110F28F501F60183010A128A11C2
:10002800A1288316031306148614061586150616CA
:100038008316031708148814081588158901831670
:100048000313051485140515851586120613091062
:10005800891009110810881008110711881208134F
:1000680088138113151495141515951595130F12EA
:100078008F160F170F14C330831203139F052130F7
:10008800F300F30B4528831203131F179F131F1444
:10009800831603139F139F121F1207158714FA3034
:1000A8009200831203131708F0390C3897000F30A9
:1000B8009500CF3097058C101210921412158C1CD5
:1000C8006628672863288C10831603130711871086
:1000D8000C17831203130C138B170B17850186015A
:1000E8008701880189010800831203130C1F7D28EA
:1000F8007E2899281F0CF000700C0F39003A031D58
:1001080086288728992806188A288B2890281E0868
:100118009500091417179717861893289428992873
:100128001E0895008914171797130C1372088A0074
:10013800710E8300FE0E7E0E09000A128A11152028
:100148000A128A11831203139F18AB28AC28A62819
:100158001F0CF400740C0F39003A031DB428B5289D
:10016800BA281F08C33904389F00BC28C3309F052C
:100178002130F400F40BBE28831203139F14A62821
:060188000A128A110C2886
:04400E00D438FF3F64
:00000001FF
