:020000040000FA
:060000000A128A110E280D
:10000800FE00030E83120313A3000A08A4000A12B9
:100018008A11362C0A128A111128FB01FC01FD01F4
:1000280083120313B301B401B501B601B701B801D6
:10003800B901BA01BB01BC01BD0183010A128A15CD
:100048007B2B033083120313B2008A30B100553082
:10005800B000B00B2D28B10B2D28B20B2D28823003
:1000680083120313A6008830A7000A128A15E52612
:100078000A128A11023083120313B2004530B1000C
:10008800A930B000B00B4628B10B4628B20B462861
:10009800A03083120313A6008830A7000A128A151D
:1000A800E5260A128A11023083120313B200453082
:1000B800B100A930B000B00B5F28B10B5F28B20BBC
:1000C8005F28B33083120313A6008830A7000A12F2
:1000D8008A15E5260A128A11023083120313B20028
:1000E8004530B100A930B000B00B7828B10B7828A2
:1000F800B20B7828433083120313A6008930A70077
:100108000A128A15E5260A128A11831203138C1E15
:100118008E288F28892831301A06031D942895289F
:10012800A22B033083120313B2008A30B10055307A
:10013800B000B00B9D28B10B9D28B20B9D285D30F7
:1001480083120313A6008830A7000A128A15E52631
:100158000A128A11023083120313B2004530B1002B
:10016800A930B000B00BB628B10BB628B20BB62830
:10017800D43083120313A6008830A7000A128A1508
:10018800E5260A128A11023083120313B2004530A1
:10019800B100A930B000B00BCF28B10BCF28B20BFB
:1001A800CF28E13083120313A6008830A7000A1273
:1001B8008A15E5260A128A11023083120313B20047
:1001C8004530B100A930B000B00BE828B10BE828E1
:1001D800B20BE828EE3083120313A6008830A7007C
:1001E8000A128A15E5260A128A11831203138C1E35
:1001F800FE28FF28F92861301A06031D042905295D
:10020800E0290030A6008830A7000A128A15E526E2
:100218000A128A11023083120313B2004530B1006A
:10022800A930B000B00B1629B10B1629B20B16294C
:100238001F3083120313A6008930A7000A128A15FB
:10024800E5260A128A11023083120313B2004530E0
:10025800B100A930B000B00B2F29B10B2F29B20B78
:100268002F29153083120313A6008930A7000A121C
:100278008A15E5260A128A11023083120313B20086
:100288004530B100A930B000B00B4829B10B48295E
:10029800B20B48293B3083120313A6008930A7000C
:1002A8000A128A15E5260A128A11023083120313EC
:1002B800B2004530B100A930B000B00B6129B10BD4
:1002C8006129B20B6129293083120313A6008930F2
:1002D800A7000A128A15E5260A128A11023083122B
:1002E8000313B2004530B100A930B000B00B7A2931
:1002F800B10B7A29B20B7A29323083120313A60084
:100308008930A7000A128A15E5260A128A110230D6
:1003180083120313B2004530B100A930B000B00B0E
:100328009329B10B9329B20B93293130831203130C
:100338001A06031DA029A129A6290A128A15302503
:100348000A128A113230831203131A06031DAD29CB
:10035800AE29B3290A128A157B250A128A1133306D
:10036800831203131A06031DBA29BB29C0290A12CE
:100378008A158E260A128A113430831203131A063C
:10038800031DC729C829CD290A128A15C9250A12A9
:100398008A113530831203131A06031DD429D5296F
:1003A800DA290A128A15E5250A128A11831203131B
:1003B8008C1EDF29E029DA2962301A06031DE52997
:1003C800E629C12A0030A6008830A7000A128A153B
:1003D800E5260A128A11023083120313B20045304F
:1003E800B100A930B000B00BF729B10BF729B20B57
:1003F800F7291F3083120313A6008930A7000A12B9
:100408008A15E5260A128A11023083120313B200F4
:100418004530B100A930B000B00B102AB10B102A3A
:10042800B20B102A153083120313A6008930A700D7
:100438000A128A15E5260A128A110230831203135A
:10044800B2004530B100A930B000B00B292AB10B79
:10045800292AB20B292A3B3083120313A6008930BC
:10046800A7000A128A15E5260A128A110230831299
:100478000313B2004530B100A930B000B00B422AD6
:10048800B10B422AB20B422A293083120313A60069
:100498008930A7000A128A15E5260A128A11023045
:1004A80083120313B2004530B100A930B000B00B7D
:1004B8005B2AB10B5B2AB20B5B2A3230831203131F
:1004C800A6008930A7000A128A15E5260A128A11A1
:1004D800023083120313B2004530B100A930B000D6
:1004E800B00B742AB10B742AB20B742A3130831200
:1004F80003131A06031D812A822A872A0A128A15DB
:1005080049250A128A113230831203131A06031D71
:100518008E2A8F2A942A0A128A1595250A128A1178
:100528003330831203131A06031D9B2A9C2AA12A1F
:100538000A128A15AB260A128A1134308312031361
:100548001A06031DA82AA92AAE2A0A128A15012604
:100558000A128A113530831203131A06031DB52AAD
:10056800B62ABB2A0A128A151D260A128A11831274
:1005780003138C1EC02AC12ABB2A63301A06031D26
:10058800C62AC72AA22B0030A6008830A7000A1264
:100598008A15E5260A128A11023083120313B20063
:1005A8004530B100A930B000B00BD82AB10BD82A19
:1005B800B20BD82A1F3083120313A6008930A70074
:1005C8000A128A15E5260A128A11023083120313C9
:1005D800B2004530B100A930B000B00BF12AB10B20
:1005E800F12AB20BF12A153083120313A6008930C1
:1005F800A7000A128A15E5260A128A110230831208
:100608000313B2004530B100A930B000B00B0A2B7B
:10061800B10B0A2BB20B0A2B3B3083120313A60033
:100628008930A7000A128A15E5260A128A110230B3
:1006380083120313B2004530B100A930B000B00BEB
:10064800232BB10B232BB20B232B2930831203133B
:10065800A6008930A7000A128A15E5260A128A110F
:10066800023083120313B2004530B100A930B00044
:10067800B00B3C2BB10B3C2BB20B3C2B3230831212
:100688000313A6008930A7000A128A15E5260A1264
:100698008A11023083120313B2004530B100A93029
:1006A800B000B00B552BB10B552BB20B552B31307D
:1006B800831203131A06031D622B632B682B0A127D
:1006C8008A1562250A128A113230831203131A0618
:1006D800031D6F2B702B752B0A128A15AF250A1272
:1006E8008A113330831203131A06031D7C2B7D2BCA
:1006F800822B0A128A15C8260A128A1134308312EC
:1007080003131A06031D892B8A2B8F2B0A128A15AD
:1007180039260A128A113530831203131A06031D6B
:10072800962B972B9C2B0A128A1555260A128A118A
:10073800831203138C1EA12BA22B9C2B32301A067A
:10074800031DA72BA82B352C3730A6008830A7000F
:100758000A128A15E5260A128A1102308312031337
:10076800B2004530B100A930B000B00BB92BB10BC5
:10077800B92BB20BB92BFB3083120313A6008830B8
:10078800A7000A128A15E5260A128A110230831276
:100798000313B2004530B100A930B000B00BD22B22
:1007A800B10BD22BB20BD22BC53083120313A60088
:1007B8008830A7000A128A15E5260A128A11023023
:1007C80083120313B2004530B100A930B000B00B5A
:1007D800EB2BB10BEB2BB20BEB2B08308312031373
:1007E800A6008930A7000A128A15E5260A128A117E
:1007F800023083120313B2004530B100A930B000B3
:10080800B00B042CB10B042CB20B042C8312031371
:100818008C1E0F2C102C0A2C31301A06031D152C97
:10082800162C1B2C0A128A15FE240A128A11323041
:10083800831203131A06031D222C232C282C0A12B8
:100848008A1517250A128A113330831203131A06E0
:10085800031D2F2C302C352C0A128A155A230A1204
:100868008A1108000C1F392C3A2C912D1F0CA0005E
:10087800200C0F39003A031D422C432C792C1F08F9
:10088800C33904389F0006194A2C4B2C572C0A12DE
:100898008A1554230A128A11033083120313A00005
:1008A8002008B600872D06185A2C5B2C652C0A12D6
:1008B8008A1581240A128A1183120313B601B60A13
:1008C800872D8618682C692C752C0A128A159A248B
:1008D8000A128A11023083120313A0002008B600FE
:1008E800872D091089100911872D1F0CA000200CD5
:1008F8000F39013A031D812C822CD42C1F08C339CF
:1009080008389F001E08A0002008FD0033307D0233
:1009180003188F2C902C952C0A128A158C230A12F6
:100928008A1166307D0203189A2C9B2CA62C333032
:100938007D02031CA02CA12CA62C0A128A15F423D4
:100948000A128A1199307D020318AB2CAC2CB72CF3
:1009580066307D02031CB12CB22CB72C0A128A1502
:10096800B2230A128A11CC307D020318BC2CBD2C8C
:10097800C82C99307D02031CC22CC32CC82C0A1227
:100988008A15B3240A128A11CC307D02031CCD2C9F
:10099800CE2C872D0A128A1539240A128A11872D1E
:1009A8001F0CA000200C0F39023A031DDC2CDD2C93
:1009B8002F2D1F08C3390C389F001E08A0002008DF
:1009C800FC0033307C020318EA2CEB2CF02C0A12C2
:1009D8008A159F230A128A1166307C020318F52CA7
:1009E800F62C012D33307C02031CFB2CFC2C012D32
:1009F8000A128A150B240A128A1199307C020318EC
:100A0800062D072D122D66307C02031C0C2D0D2D92
:100A1800122D0A128A15C8230A128A11CC307C02B8
:100A28000318172D182D232D99307C02031C1D2D1A
:100A38001E2D232D0A128A15CC240A128A11CC30B5
:100A48007C02031C282D292D872D0A128A15512472
:100A58000A128A11872D1F0CA000200C0F39033AA7
:100A6800031D372D382D872DC3309F051E08A00084
:100A78002008FB0033307B020318432D442D492DF9
:100A88000A128A11EB270A128A1166307B020318B0
:100A98004E2D4F2D5A2D33307B02031C542D552DCE
:100AA8005A2D0A128A1522240A128A1199307B02B9
:100AB80003185F2D602D6B2D66307B02031C652D9E
:100AC800662D6B2D0A128A15DE230A128A11CC3084
:100AD8007B020318702D712D7C2D99307B02031C2D
:100AE800762D772D7C2D0A128A15E5240A128A1193
:100AF800CC307B02031C812D822D872D0A128A158A
:100B080069240A128A11831203130C1320308312EA
:100B18000313A000A00B8E2D00000B1C942D952D07
:100B2800792F8312031386199A2D9B2DDC2D06131A
:100B380086161630A0002008F0007D080A128A15D3
:100B480071260A128A11173083120313A000200895
:100B5800F0007C080A128A1571260A128A111830C8
:100B680083120313A0002008F0007B080A128A15DC
:100B780071260A128A11193083120313A000200863
:100B8800F00036080A128A1571260A128A110330F3
:100B980083120313A2008A30A1005530A000A00BD5
:100BA800D32DA10BD32DA20BD32D831203138612A1
:100BB800061ADF2DE02D782F8612061716300A1236
:100BC8008A156A230A128A1183120313A0002008C7
:100BD800B90017300A128A156A230A128A11831279
:100BE8000313A0002008B80018300A128A156A23D7
:100BF8000A128A1183120313A0002008B7001930C3
:100C08000A128A156A230A128A1183120313A00092
:100C18002008B500333039020318132E142E1F2E66
:100C28000A128A158C230A128A111E3083120313A2
:100C3800A0002008FD00663039020318242E252E56
:100C4800362E33303902031C2A2E2B2E362E0A124A
:100C58008A15F4230A128A11463083120313A0005E
:100C68002008FD009930390203183B2E3C2E4D2EEA
:100C780066303902031C412E422E4D2E0A128A1567
:100C8800B2230A128A11823083120313A0002008AB
:100C9800FD00CC3039020318522E532E642E9930A1
:100CA8003902031C582E592E642E0A128A15B324B1
:100CB8000A128A11AA3083120313A0002008FD002B
:100CC800CC303902031C692E6A2E752E0A128A1539
:100CD80039240A128A11CD3083120313A000200888
:100CE800FD003330380203187A2E7B2E862E0A1226
:100CF8008A159F230A128A111E3083120313A0003B
:100D08002008FC006630380203188B2E8C2E9D2E8E
:100D180033303802031C912E922E9D2E0A128A150A
:100D28000B240A128A11463083120313A0002008EC
:100D3800FC00993038020318A22EA32EB42E663078
:100D48003802031CA82EA92EB42E0A128A15C8230D
:100D58000A128A116E3083120313A0002008FC00C7
:100D6800CC3038020318B92EBA2ECB2E993038025F
:100D7800031CBF2EC02ECB2E0A128A15CC240A12B1
:100D88008A11AA3083120313A0002008FC00CC307B
:100D98003802031CD02ED12EDC2E0A128A155124BB
:100DA8000A128A11CD3083120313A0002008FC0018
:100DB800333037020318E12EE22EED2E0A128A1183
:100DC800EB270A128A111E3083120313A000200891
:100DD800FB00663037020318F22EF32E042F33304F
:100DE8003702031CF82EF92E042F0A128A15222422
:100DF8000A128A11463083120313A0002008FB0050
:100E0800993037020318092F0A2F1B2F6630370233
:100E1800031C0F2F102F1B2F0A128A15DE230A120C
:100E28008A11823083120313A0002008FB00CC3003
:100E380037020318202F212F322F99303702031C35
:100E4800262F272F322F0A128A15E5240A128A1113
:100E5800AA3083120313A0002008FB00CC3037020D
:100E6800031C372F382F432F0A128A1569240A12B8
:100E78008A11CD3083120313A0002008FB00033031
:100E88003506031D482F492F4E2F0A128A15542361
:100E98000A128A11831203133503031D542F552F89
:100EA8005A2F0A128A1581240A128A1102308312D3
:100EB80003133506031D612F622F672F0A128A1547
:100EC8009A240A128A110B3083120313A2002630C7
:100ED800A1005D30A000A00B6F2FA10B6F2FA20BFC
:100EE8006F2F8312031306130B10831203132408A6
:100EF8008A00230E8300FE0E7E0E09008312031360
:100F0800AB01A61F882F892F902FA509A609A50A2E
:100F18000319A60AAB01AB0AA81F932F942F9D2F84
:100F2800A709A809A70A0319A80A0130A9002908CE
:100F3800AB06AC01AD01250826040319A42FA52F83
:100F4800DC2FAA01AA0AB32F01300310A50DA60DA4
:100F5800FF3E031DA92F0130A9002908AA07A61FD3
:100F6800B62FB72FA82F01300310AC0DAD0DFF3EE3
:100F7800031DB82F26082802031DC42F25082702A1
:100F8800031CC72FC82FCF2F2508A7022608031C2C
:100F9800A803A8022C1401300310A60CA50CFF3ED0
:100FA800031DD02F0130AA02031DDB2FDC2FB72F22
:100FB8002B080319E02FE12FE62FAC09AD09AC0A85
:100FC8000319AD0A2D08A6002C08A50008008312F5
:100FD80003130815E930F000F00BF02F8312031308
:100FE80008111A30F1000F30F000F00BF92FF10B57
:040FF800F92F0800C5
:101000000D342034533465346C34653463346334C4
:1010100069346F346E346534203465346E3474341E
:101020007234653420346C346F3473342034733448
:10103000693467347534693465346E3474346534B6
:101040002034703461347234613420346434613457
:10105000723420346C346134203470346F3473341F
:101060006934633469346F346E343A3400340D3487
:101070002034483461346334693461342034643456
:101080006F346E34643465342034643465347334BE
:101090006534613420346D346F34763465347234A1
:1010A000203465346C3420346D346F3474346F34D0
:1010B00072343F3420340D3400340D342034C234C3
:1010C000BF344334753461346C3420346434653453
:1010D00020346C346F347334203473346534723498
:1010E00076346F3473342034643465347334653447
:1010F000613420346D346F347634653472343F3467
:101100000D3400340D3420345134753465342034BA
:1011100061346334633469346F346E34203464343E
:101120006534733465346134203465346A3465342D
:101130006334753474346134723420340D340034C3
:1011400028343134293420344D346F3476346534C6
:101150007234203473346534723476346F347334BB
:1011600020340D34003428343234293420344D34C2
:101170006F3476346534723420346D346F347434A3
:101180006F34723420340D3400340D342034323452
:101190003A34203449347A347134753469346534DE
:1011A00072346434613400340D34203461342E34AC
:1011B000203453346534723476346F34203431340F
:1011C00000340D34203462342E34203453346534EA
:1011D000723476346F342034323400340D34203499
:1011E00063342E34203453346534723476346F349F
:1011F0002034333400340D34203431343A34203444
:101200004434653472346534633468346134003492
:101210000D34203433343A34203444346534743457
:1012200065346E346534723400340D342034323415
:101230003A3420342D3439343034203400340D34F1
:10124000203431343A3420342D343434353420349D
:1012500000340D34203434343A34203439343034CA
:10126000203400340D34203435343A3420343434CE
:101270003534203400340D34203433343A342034BF
:1012800030342034003428343334293420342034AA
:101290000D340034FF1B542983137F188317000873
:1012A000840A0319FF0A08007F087F398A000408AE
:0812B000840A0319FF0A820001
:1016A8008312031395019B01091508008312031384
:1016B80095019B010915080083120313A5000C1E50
:1016C800662B672B632B250899000800F100710829
:1016D800831203178D00831603178C130C148312BF
:1016E80003170C08F0007008F200720808000A12CC
:1016F8008A1574270A128A15831203139F140A1273
:101708008A1125200A128A15802B0A128A110E289E
:10171800831203130814E930F000F00B912B8312A5
:10172800031308101A30F1000F30F000F00B9A2B59
:10173800F10B9A2B0800831203138814E930F00088
:10174800F00BA42B8312031388101A30F1000F300A
:10175800F000F00BAD2BF10BAD2B08008312031337
:101768000814D630F000B82BB92BF00BB72B0000BB
:101778008312031308101930F1000530F000F00B44
:10178800C32BF10BC32B0800831203138814D63024
:10179800F000CE2BCF2BF00BCD2B000083120313C0
:1017A80088101930F1000530F000F00BD92BF10B3F
:1017B800D92B0800831203130815D630F000E42B48
:1017C800E52BF00BE32B00008312031308111930EB
:1017D800F1000530F000F00BEF2BF10BEF2B0800B8
:1017E800831203130814F930F000FA2BF00BF92BCD
:1017F800FD2BFE2B8312031308101930F10058300B
:10180800F000F00B052CF10B052C000008008312EA
:1018180003138814F930F000112CF00B102C142C41
:10182800152C8312031388101930F1005830F0007A
:10183800F00B1C2CF10B1C2C000008008312031366
:101848000815F930F000282CF00B272C2B2C2C2C09
:101858008312031308111930F1005830F000F00B0F
:10186800332CF10B332C00000800831203130814E7
:101878000330F1009730F000F00B402CF10B402CB6
:10188800452C8312031308101830F1005F30F00064
:10189800F00B4C2CF10B4C2C08008312031388140A
:1018A8000330F1009730F000F00B582CF10B582C56
:1018B8005D2C8312031388101830F1005F30F0009C
:1018C800F00B642CF10B642C080083120313081529
:1018D8000330F1009730F000F00B702CF10B702CF6
:1018E800752C8312031308111830F1005F30F000D3
:1018F800F00B7C2CF10B7C2C08000430F00000303D
:10190800F100831203131E08F900FA017908F200A6
:101918007A08F3000A128A150D270A128A15700828
:101928008312031395009B01091408008312031303
:1019380095010430F0000030F1001E08F900FA01AA
:101948007908F2007A08F3000A128A150D270A129C
:101958008A157008831203139B00891408008312E8
:1019680003130814F930F000B92CBA2CF00BB82C7A
:10197800BD2CBE2CBF2C8312031308101830F100A5
:10198800B230F000F00BC62CF10BC62C000008009A
:10199800831203138814F930F000D22CD32CF00BE7
:1019A800D12CD62CD72CD82C83120313881018309E
:1019B800F100B230F000F00BDF2CF10BDF2C00004F
:1019C8000800831203130815F930F000EB2CEC2CF7
:1019D800F00BEA2CEF2CF02CF12C831203130811D6
:1019E8001830F100B230F000F00BF82CF10BF82CA5
:1019F80000000800043083120313A5000030A6007D
:101A08001E08AE00AF012E08A7002F08A8000A1272
:101A18008A1182270A128A15831203132508950052
:101A28009B01091408008312031395010430A500D3
:101A38000030A6001E08AE00AF012E08A7002F0830
:101A4800A8000A128A1182270A128A158312031320
:101A580025089B0089140800831203130814E83032
:101A680083120313A500A50B372D0000831203135F
:101A780008101A3083120313A6000E30A500A50B18
:101A8800432DA60B432D000008008312031388146E
:101A9800E83083120313A500A50B502D0000831214
:101AA800031388101A3083120313A6000E30A50002
:101AB800A50B5C2DA60B5C2D0000080083120313F8
:101AC8000815E83083120313A500A50B692D000043
:101AD8008312031308111A3083120313A6000E3061
:101AE800A500A50B752DA60B752D00000800831207
:101AF80003130814F93083120313A500832DA50BD3
:101B0800822D862D831203130810193083120313B4
:101B1800A6005730A500A50B8F2DA60B8F2D942D51
:101B28000800831203138814F93083120313A500E5
:101B38009D2DA50B9C2DA02D831203138810193001
:101B480083120313A6005730A500A50BA92DA60BD9
:101B5800A92DAE2D0800831203130815F93083123E
:101B68000313A500B72DA50BB62DBA2D83120313A9
:101B78000811193083120313A6005730A500A50BCE
:101B8800C32DA60BC32DC82D0800831203130814F8
:101B9800F93083120313A500D12DD22DA50BD02D1A
:101BA800D52DD62D83120313081018308312031372
:101BB800A600B130A500A50BDF2DA60BDF2DE42D67
:101BC8000800831203130814033083120313A600BA
:101BD8009730A500A50BEE2DA60BEE2D831203134F
:101BE8000810183083120313A6005E30A500A50B59
:101BF800FB2DA60BFB2D000008008312031388148D
:101C0800F93083120313A500092E0A2EA50B082EFE
:101C18000D2E0E2E8312031388101830831203130F
:101C2800A600B130A500A50B172EA60B172E1C2E4B
:101C38000800831203138814033083120313A600C9
:101C48009730A500A50B262EA60B262E831203136C
:101C58008810183083120313A6005E30A500A50B68
:101C6800332EA60B332E0000080083120313081529
:101C7800F93083120313A500412E422EA50B402EE6
:101C8800452E462E831203130811183083120313AE
:101C9800A600B130A500A50B4F2EA60B4F2E542E33
:101CA8000800831203130815033083120313A600D8
:101CB8009730A500A50B5E2EA60B5E2E831203138C
:101CC8000811183083120313A6005E30A500A50B77
:101CD8006B2EA60B6B2E00000800F1007008831213
:101CE80003178D0071088C00831603178C130C15CD
:101CF8008B1355308D00AA308D008C14831203137A
:101D08000D1E872E882E822E0D12831603170C1196
:101D18008B130800831203130814D530831203139E
:101D2800A500962E972EA50B952E9A2E9B2E9C2EAF
:101D3800831203130810193083120313A60004300A
:101D4800A500A50BA52EA60BA52E00000800831242
:101D580003138814D53083120313A500B32EB42EB1
:101D6800A50BB22EB72EB82EB92E831203138810E6
:101D7800193083120313A6000430A500A50BC22E48
:101D8800A60BC22E00000800831203130815D530D5
:101D980083120313A500D02ED12EA50BCF2ED42E3F
:101DA800D52ED62E8312031308111930831203136C
:101DB800A6000430A500A50BDF2EA60BDF2E000021
:101DC8000800283083120313A8002808AB00F22E5D
:101DD8002C080A128A1560230A128A158312031323
:101DE8002708A9002608A800A60A0319A70A29088F
:101DF800FF00280884000A128A154A210A128A1547
:101E0800AA002A08AC002C08031D0B2F0C2FEC2E5F
:101E18000800F601F11F112F122F192FF009F109EF
:101E2800F00A0319F10AF601F60AF31F1C2F1D2FF9
:101E3800262FF209F309F20A0319F30A0130F40014
:101E48007408F606F701F8017008710403192D2FBC
:101E58002E2F652FF501F50A3C2F01300310F00DE8
:101E6800F10DFF3E031D322F0130F4007408F50711
:101E7800F11F3F2F402F312F01300310F70DF80DC0
:101E8800FF3E031D412F71087302031D4D2F70087B
:101E98007202031C502F512F582F7008F20271083C
:101EA800031CF303F302771401300310F10CF00C58
:101EB800FF3E031D592F0130F502031D642F652FC6
:101EC800402F76080319692F6A2F6F2FF709F80931
:101ED800F70A0319F80A7808F1007708F0000800F3
:101EE800831603130614861406158615061683161C
:101EF8000317081488140815881589018316031315
:101F08000514851405158515861206130910891000
:101F180009110810881008118812081388138113F2
:101F2800151495141515951595130F128F160F176F
:101F38000F14C330831203139F0520308312031339
:101F4800A500A50BA52F0000831203131F179F13CD
:101F58001F14831603139F139F121F12071587144C
:101F68007D3092003F308312031397050F309D0494
:101F78001708F0390C3897000F309500CF309705C7
:101F88000F309B001D129D128C1012109214121506
:101F98008C1CCF2FD02FCC2F8C1083160313071136
:101FA80087100C17831203130C138B170B17831648
:101FB8000313961516168B150B10673099009A01A6
:101FC800831603178715831603131815181283121F
:101FD80003139817181683160313181398168312E9
:101FE800031318138B170B170C128C12850186011B
:081FF80087018801890108003E
:04400E00D420FF3F7C
:00000001FF
