:020000040000FA
:060000000A128A110C280F
:10000800FE00030EF1000A08F2000A128A117F2886
:100018000A128A110F28F501F60183010A128A11C2
:10002800B3288316031306148614061586150616B8
:100038008316031708148814081588158901831670
:100048000313051485140515851586120613091062
:1000580089100911081088100811881208138813CC
:100068008113151495141515951595130F128F16E0
:100078000F170F14C330831203139F052130F300A9
:10008800F30B4428831203131F179F131F1483169F
:1000980003139F139F121F12071587147D309200B8
:1000A8003F308312031397050F309D041708F0396A
:1000B8000C3897000F309500CF3097050F309B0014
:1000C8001D129D128C101210921412158C1C6D2882
:1000D8006E286A288C1083160313071187100C17D3
:1000E800831203130C138B170B17850186018701E5
:1000F800880189010800831203130C1F84288528AE
:10010800AB281F0CF000700C0F39003A031D8D2826
:100118008E28AB28061991289228962895019B01CC
:100128000915AB28061899289A289F281E089500B3
:100138009B010914AB288618A228A328A828950192
:100148001E089B008914AB280910891009110C138B
:1001580072088A00710E8300FE0E7E0E09000A12D4
:100168008A1115200A128A11831203139F18BD28B9
:10017800BE28B8281F0CF400740C0F39003A031D70
:10018800C628C728CC281F08C33904389F00CE28A2
:10019800C3309F052130F400F40BD02883120313D9
:0A01A8009F14B8280A128A110C28CF
:04400E00D438FF3F64
:00000001FF
