:020000040000FA
:060000000A128A11FA2F1A
:100ECE000A128A1190270A128A11F001F101831277
:100EDE0003130618732F742F812F7008031D782F9C
:100EEE00792F7E2FF001F00A97171717812FF00137
:100EFE00971317139F149F18852F862F822F1E0866
:100F0E00F3007308F100710895006E2F0A128A1112
:100F1E000028831603130614861406158615061666
:100F2E00831603170814881408158815890183166B
:100F3E00031305148514051585158612061309105D
:100F4E0089100911081088100811881208138813C7
:100F5E008113151495141515951595130F128F16DB
:100F6E000F170F14C330831203139F052130F200A5
:100F7E00F20BBF2F831203131F179F131F14831619
:100F8E0003139F139F121F12071587147D309200B3
:100F9E008312031317083F39403897000F309D0412
:100FAE001708F0390C389700CF3097050F309B009B
:100FBE001D129D128C101210921412158C1CE82FFB
:100FCE00E92FE52F8C1083160313071187100C17CA
:100FDE00831203130C138B170B17850186018701E0
:100FEE00880189010800F001F10183010A128A11BA
:020FFE00672F5B
:04400E00D438FF3F64
:00000001FF
