:020000040000FA
:060000000A128A110C280F
:10000800FE00030EFB000A08FC000A128A111928D8
:100018000A128A110F28FD0183120313A001A101FE
:10002800A20183010A128A117729831203130C1F74
:100038001E281F2877281F0CF900790C0F39003A61
:10004800031D272828286A2806192B282C28302839
:1000580095019B01091577280618332834284B2861
:100068000430F0000030F1001E08F900FA017908A8
:10007800F2007A08F3000A128A1110210A128A1172
:1000880070088312031395009B01091477288618BA
:100098004E284F28662895010430F0000030F10002
:1000A8001E08F900FA017908F2007A08F3000A122A
:1000B8008A1110210A128A117008831203139B00F7
:1000C8008914772809108910091177281F0CF9005D
:1000D800790C0F39013A031D7228732877281E08F6
:1000E800F9007908A0000C130B1D7B287C289028A8
:1000F8000130F9007908FD0720087D0203188528DA
:100108008628882808148928081014307D02031CC2
:100118008E288F289028FD010B117C088A007B0E01
:100128008300FE0E7E0E0900831603130614861440
:10013800061586150616831603170814881408155D
:10014800881589018316031305148514051585156B
:100158008612061309108910091108108810081151
:1001680088120813881381131514951415159515FD
:1001780095130F128F160F170F14C3308312031322
:100188009F05203083120313A300A30BC928000086
:10019800831203131F179F131F14831603139F1330
:1001A8009F121F12071587147D3092003F3083126B
:1001B800031397050F309D041708F0390C38970082
:1001C8000F309500CF3097050F309B001D129D1200
:1001D8008C101210921412158C1CF328F428F02895
:1001E8008C1083160313071187100C17831203133F
:1001F8000C138B170B17831603138112811101142B
:1002080081140111F93083120313810085018601DD
:100218008701880189010800F601F11F14291529B1
:100228001C29F009F109F00A0319F10AF601F60A86
:10023800F31F1F2920292929F209F309F20A0319B2
:10024800F30A0130F4007408F606F701F8017008A3
:1002580071040319302931296829F501F50A3F2964
:1002680001300310F00DF10DFF3E031D352901305B
:10027800F4007408F507F11F422943293429013095
:100288000310F70DF80DFF3E031D44297108730292
:10029800031D502970087202031C532954295B2935
:1002A8007008F2027108031CF303F302771401309B
:1002B8000310F10CF00CFF3E031D5C290130F50220
:1002C800031D672968294329760803196C296D29B4
:1002D8007229F709F809F70A0319F80A7808F100EA
:1002E8007708F00008000A128A1198200A128A1169
:1002F800831203139F18812982299D291F0CA400AA
:10030800240C0F39003A031D8A298B2990291F08CC
:10031800C33904389F009D291F0CA400240C0F39F1
:10032800013A031D982999299D291F08C3390838BE
:100338009F00203083120313A400A40BA1290000FE
:0E034800831203139F147C290A128A110C28B9
:04400E00D420FF3F7C
:00000001FF
