:020000040000FA
:060000000A128A11122809
:10000800FE00030E83120313B0000408B1000A08AF
:10001800B2007F08B3000A128A11F02B0A128A1163
:10002800152883120313A001A101A201A301A401B1
:10003800A501A601A701A801A901AA01AB01AC016C
:1000480083010A128A15B42D0330FD008A30FC00A2
:100058005530FB00FB0B2E28FC0B2E28FD0B2E2801
:1000680035288030F1008830F2000A128A1573278B
:100078000A128A110230FD004530FC00A930FB004D
:10008800FB0B4428FC0B4428FD0B44284B28B830B4
:10009800F1008830F2000A128A1573270A128A11B1
:1000A8000230FD004530FC00A930FB00FB0B5A284C
:1000B800FC0B5A28FD0B5A286128CB30F1008830F8
:1000C800F2000A128A1573270A128A110230FD00FB
:1000D8004530FC00A930FB00FB0B7028FC0B702896
:1000E800FD0B702877289E30F1008830F2000A1244
:1000F8008A1573270A128A11831203138C1E852806
:100108008628802831301A06031D8B288C285D2B01
:100118000330FD008A30FC005530FB00FB0B9228B1
:10012800FC0B9228FD0B922899285D30F10088304D
:10013800F2000A128A1573270A128A110230FD008A
:100148004530FC00A930FB00FB0BA828FC0BA828B5
:10015800FD0BA828AF28EC30F1008830F2000A1215
:100168008A1573270A128A110230FD004530FC00F7
:10017800A930FB00FB0BBE28FC0BBE28FD0BBE28DC
:10018800C528F930F1008830F2000A128A15732761
:100198000A128A110230FD004530FC00A930FB002C
:1001A800FB0BD428FC0BD428FD0BD428DB28063005
:1001B800F1008930F2000A128A1573270A128A118F
:1001C800831203138C1EE928EA28E42861301A06F2
:1001D800031DEF28F028BB290030F1008830F20019
:1001E8000A128A1573270A128A110230FD00453057
:1001F800FC00A930FB00FB0BFF28FC0BFF28FD0BC4
:10020800FF2806293730F1008930F2000A128A15D2
:1002180073270A128A110230FD004530FC00A9300C
:10022800FB00FB0B1529FC0B1529FD0B15291C29B7
:100238002D30F1008930F2000A128A1573270A124C
:100248008A110230FD004530FC00A930FB00FB0B91
:100258002B29FC0B2B29FD0B2B2932295330F100BC
:100268008930F2000A128A1573270A128A1102309D
:10027800FD004530FC00A930FB00FB0B4129FC0BBD
:100288004129FD0B412948294130F1008930F2000C
:100298000A128A1573270A128A110230FD004530A6
:1002A800FC00A930FB00FB0B5729FC0B5729FD0B61
:1002B80057295E294A30F1008930F2000A128A155E
:1002C80073270A128A110230FD004530FC00A9305C
:1002D800FB00FB0B6D29FC0B6D29FD0B6D297429A7
:1002E8003130831203131A06031D7B297C298129C7
:1002F8000A128A15D1250A128A1132308312031381
:100308001A06031D882989298E290A128A154C265E
:100318000A128A113330831203131A06031D952912
:1003280096299B290A128A150A260A128A1134303C
:10033800831203131A06031DA229A329A8290A1246
:100348008A150B270A128A113530831203131A06ED
:10035800031DAF29B029B5290A128A1591260A1258
:100368008A11831203138C1EBA29BB29B52962305E
:100378001A06031DC029C1298C2A0030F1008830D3
:10038800F2000A128A1573270A128A110230FD0038
:100398004530FC00A930FB00FB0BD029FC0BD02911
:1003A800FD0BD029D7293730F1008930F2000A1225
:1003B8008A1573270A128A110230FD004530FC00A5
:1003C800A930FB00FB0BE629FC0BE629FD0BE6290F
:1003D800ED292D30F1008930F2000A128A157327B1
:1003E8000A128A110230FD004530FC00A930FB00DA
:1003F800FB0BFC29FC0BFC29FD0BFC29032A5330C1
:10040800F1008930F2000A128A1573270A128A113C
:100418000230FD004530FC00A930FB00FB0B122A1E
:10042800FC0B122AFD0B122A192A4130F1008930DF
:10043800F2000A128A1573270A128A110230FD0087
:100448004530FC00A930FB00FB0B282AFC0B282AAE
:10045800FD0B282A2F2A4A30F1008930F2000A12AF
:100468008A1573270A128A110230FD004530FC00F4
:10047800A930FB00FB0B3E2AFC0B3E2AFD0B3E2A53
:10048800452A3130831203131A06031D4C2A4D2ABC
:10049800522A0A128A15E4250A128A113230831266
:1004A80003131A06031D592A5A2A5F2A0A128A15A3
:1004B80063260A128A113330831203131A06031DA6
:1004C800662A672A6C2A0A128A1520260A128A11B5
:1004D8003430831203131A06031D732A742A792AE7
:1004E8000A128A1524270A128A1135308312031337
:1004F8001A06031D802A812A862A0A128A15A92625
:100508000A128A11831203138C1E8B2A8C2A862ABC
:1005180063301A06031D912A922A5D2B0030F100E0
:100528008830F2000A128A1573270A128A110230DB
:10053800FD004530FC00A930FB00FB0BA12AFC0B99
:10054800A12AFD0BA12AA82A3730F1008930F20030
:100558000A128A1573270A128A110230FD004530E3
:10056800FC00A930FB00FB0BB72AFC0BB72AFD0BDC
:10057800B72ABE2A2D30F1008930F2000A128A15F6
:1005880073270A128A110230FD004530FC00A93099
:10059800FB00FB0BCD2AFC0BCD2AFD0BCD2AD42A60
:1005A8005330F1008930F2000A128A1573270A12B3
:1005B8008A110230FD004530FC00A930FB00FB0B1E
:1005C800E32AFC0BE32AFD0BE32AEA2A4130F10077
:1005D8008930F2000A128A1573270A128A1102302A
:1005E800FD004530FC00A930FB00FB0BF92AFC0B91
:1005F800F92AFD0BF92A002B4A30F1008930F20064
:100608000A128A1573270A128A110230FD00453032
:10061800FC00A930FB00FB0B0F2BFC0B0F2BFD0B79
:100628000F2B162B3130831203131A06031D1D2BB3
:100638001E2B232B0A128A15F7250A128A1132302B
:10064800831203131A06031D2A2B2B2B302B0A1295
:100658008A157A260A128A113330831203131A066E
:10066800031D372B382B3D2B0A128A1536260A1202
:100678008A113430831203131A06031D442B452BA9
:100688004A2B0A128A153D270A128A11353083121D
:1006980003131A06031D512B522B572B0A128A15C6
:1006A800C1260A128A11831203138C1E5C2B5D2B40
:1006B800572B32301A06031D622B632BE62B37307B
:1006C800F1008830F2000A128A1573270A128A117B
:1006D8000230FD004530FC00A930FB00FB0B722BFB
:1006E800FC0B722BFD0B722B792B1330F100893028
:1006F800F2000A128A1573270A128A110230FD00C5
:100708004530FC00A930FB00FB0B882BFC0B882B29
:10071800FD0B882B8F2BDD30F1008830F2000A1298
:100728008A1573270A128A110230FD004530FC0031
:10073800A930FB00FB0B9E2BFC0B9E2BFD0B9E2B6D
:10074800A52B2030F1008930F2000A128A15732790
:100758000A128A110230FD004530FC00A930FB0066
:10076800FB0BB42BFC0BB42BFD0BB42BBB2B831254
:1007780003138C1EC02BC12BBB2B31301A06031D53
:10078800C62BC72BCC2B0A128A15D9260A128A1116
:100798003230831203131A06031DD32BD42BD92B03
:1007A8000A128A15F2260A128A11333083120313A9
:1007B8001A06031DE02BE12BE62B0A128A15A42545
:1007C8000A128A113330831203131A06031DED2B04
:1007D800EE2BEF2BA00108000C1FF32BF42B632D3D
:1007E8001F0CAD002D0C0F39003A031DFC2BFD2BFF
:1007F800332C1F08C33904389F000619042C052C14
:10080800112C0A128A15A4250A128A1103308312A0
:100818000313AD002D08A200592D0618142C152C11
:100828001F2C0A128A15D9260A128A118312031359
:10083800A201A20A592D8618222C232C2F2C0A1229
:100848008A15F2260A128A11023083120313AD00A8
:100858002D08A200592D091089100911592D1F0CB6
:10086800AD002D0C0F39013A031D3B2C3C2C962C66
:100878001F08C33908389F001E08AD002D08A800BE
:10088800333028020318492C4A2C4F2C0A128A1597
:10089800D1250A128A11663083120313280203181D
:1008A800562C572C622C33302802031C5C2C5D2CF0
:1008B800622C0A128A154C260A128A119930831260
:1008C800031328020318692C6A2C752C6630280239
:1008D800031C6F2C702C752C0A128A150A260A1212
:1008E8008A11CC3083120313280203187C2C7D2C28
:1008F800882C99302802031C822C832C882C0A12FD
:100908008A150B270A128A11CC3083120313280286
:10091800031C8F2C902C592D0A128A1591260A1225
:100928008A11592D1F0CAD002D0C0F39023A031DE9
:100938009E2C9F2CF92C1F08C3390C389F001E08C9
:10094800AD002D08A700333027020318AC2CAD2CBE
:10095800B22C0A128A15E4250A128A11663083120B
:10096800031327020318B92CBA2CC52C33302702DD
:10097800031CBF2CC02CC52C0A128A1563260A1228
:100988008A1199308312031327020318CC2CCD2C1B
:10099800D82C66302702031CD22CD32CD82C0A1250
:1009A8008A1520260A128A11CC30831203132702D3
:1009B8000318DF2CE02CEB2C99302702031CE52CC4
:1009C800E62CEB2C0A128A1524270A128A11CC303D
:1009D800831203132702031CF22CF32C592D0A123D
:1009E8008A15A9260A128A11592D1F0CAD002D0C43
:1009F8000F39033A031D012D022D592DC3309F05D0
:100A08001E08AD002D08A6003330260203180D2D50
:100A18000E2D132D0A128A15F7250A128A1166302F
:100A280083120313260203181A2D1B2D262D33308B
:100A38002602031C202D212D262D0A128A157A261E
:100A48000A128A11993083120313260203182D2DD6
:100A58002E2D392D66302602031C332D342D392DC9
:100A68000A128A1536260A128A11CC308312031309
:100A780026020318402D412D4C2D99302602031CC7
:100A8800462D472D4C2D0A128A153D270A128A1128
:100A9800CC30831203132602031C532D542D592DD9
:100AA8000A128A15C1260A128A11831203130C131B
:100AB800203083120313AD00AD0B602D00000B1C1A
:100AC800662D672D632F8312031386196C2D6D2DE8
:100AD800AE2D061386161630AD002D08F000280836
:100AE8000A128A1556270A128A111730831203131D
:100AF800AD002D08F00027080A128A1556270A1299
:100B08008A11183083120313AD002D08F00026084F
:100B18000A128A1556270A128A11193083120313EA
:100B2800AD002D08F00022080A128A1556270A126D
:100B38008A11033083120313AF008A30AE00553098
:100B4800AD00AD0BA52DAE0BA52DAF0BA52D8312BA
:100B580003138612061AB12DB22D4A2F86120617D4
:100B680016300A128A15C0250A128A118312031335
:100B7800AD002D08A50017300A128A15C0250A12E3
:100B88008A1183120313AD002D08A40018300A122D
:100B98008A15C0250A128A1183120313AD002D0885
:100BA800A30019300A128A15C0250A128A11831265
:100BB8000313AD002D08A100333025020318E52DDD
:100BC800E62DF12D0A128A15D1250A128A111E3036
:100BD80083120313AD002D08A80066302502031800
:100BE800F62DF72D082E33302502031CFC2DFD2D84
:100BF800082E0A128A154C260A128A1146308312C8
:100C08000313AD002D08A8009930250203180D2EF6
:100C18000E2E1F2E66302502031C132E142E1F2E97
:100C28000A128A150A260A128A11823083120313BD
:100C3800AD002D08A800CC3025020318242E252E3F
:100C4800362E99302502031C2A2E2B2E362E0A12F8
:100C58008A150B270A128A11AA3083120313AD00D2
:100C68002D08A800CC302502031C3B2E3C2E472E15
:100C78000A128A1591260A128A11CD30831203139B
:100C8800AD002D08A8003330240203184C2E4D2E39
:100C9800582E0A128A15E4250A128A111E30831268
:100CA8000313AD002D08A7006630240203185D2E3B
:100CB8005E2E6F2E33302402031C632E642E6F2E9B
:100CC8000A128A1563260A128A1146308312031300
:100CD800AD002D08A700993024020318742E752E34
:100CE800862E66302402031C7A2E7B2E862E0A124C
:100CF8008A1520260A128A116E3083120313AD005A
:100D08002D08A700CC30240203188B2E8C2E9D2E84
:100D180099302402031C912E922E9D2E0A128A15B8
:100D280024270A128A11AA3083120313AD002D0852
:100D3800A700CC302402031CA22EA32EAE2E0A122A
:100D48008A15A9260A128A11CD3083120313AD0021
:100D58002D08A700333023020318B32EB42EBF2E5C
:100D68000A128A15F7250A128A111E3083120313F4
:100D7800AD002D08A600663023020318C42EC52E28
:100D8800D62E33302302031CCA2ECB2ED62E0A129F
:100D98008A157A260A128A11463083120313AD0087
:100DA8002D08A600993023020318DB2EDC2EED2E29
:100DB80066302302031CE12EE22EED2E0A128A155C
:100DC80036260A128A11823083120313AD002D08C9
:100DD800A600CC3023020318F22EF32E042F9930EC
:100DE8002302031CF82EF92E042F0A128A153D2718
:100DF8000A128A11AA3083120313AD002D08A60027
:100E0800CC302302031C092F0A2F152F0A128A152A
:100E1800C1260A128A11CD3083120313AD002D08A2
:100E2800A60003302106031D1A2F1B2F202F0A129C
:100E38008A15A4250A128A11831203132103031D9C
:100E4800262F272F2C2F0A128A15D9260A128A1123
:100E58000230831203132106031D332F342F392F39
:100E68000A128A15F2260A128A110B30831203130A
:100E7800AF002630AE005D30AD00AD0B412FAE0B9C
:100E8800412FAF0B412F831203130613861B4D2FDF
:100E98004E2F622FA001A00A562F0A128A1128206D
:100EA8000A128A1183120313200303195C2F5D2F82
:100EB800512F861B602F612F622FA0010B10831208
:100EC80003133308FF0032088A0031088400300E0B
:100ED8008300FE0E7E0E0900831603130614861483
:100EE80006158615061683160317081488140815A0
:100EF80088158901831603130514851405158515AE
:100F08008612061309108910091108108810081193
:100F1800881208138813811315149514151595153F
:100F280095170F128F160F170F14C3308312031360
:100F38009F05203083120313B400B40BA12F0000C7
:100F4800831203131F179F131F14831603139F1372
:100F58009F121F12071587147D3092003F308312AD
:100F6800031397050F309D041708F0390C389700C4
:100F78000F309500CF3097050F309B001D129D1242
:100F88008C101210921412158C1CCB2FCC2FC82F3A
:100F98008C1083160313071187100C178312031381
:100FA8000C138B170B178316031396151616961723
:100FB8008B150B10673099009A0183160317871554
:100FC800831603131815181283120313981718168B
:100FD80083160313181398168312031318138B1709
:100FE8000B170C128C128501860187018801890173
:020FF8000800EF
:101000000D342034533465346C34653463346334C4
:1010100069346F346E346534203465346E3474341E
:101020007234653420346C346F3473342034733448
:10103000693467347534693465346E3474346534B6
:101040002034703461347234613420346434613457
:10105000723420346C346134203470346F3473341F
:101060006934633469346F346E343A3400340D3487
:101070002034483461346334693461342034643456
:101080006F346E34643465342034643465347334BE
:101090006534613420346D346F34763465347234A1
:1010A000203465346C3420346D346F3474346F34D0
:1010B00072343F3420340D3400340D342034433442
:1010C000753461346C3420346434653420346C34C9
:1010D0006F347334203473346534723476346F343F
:1010E00073342034643465347334653461342034AB
:1010F0006D346F347634653472343F340D340034DB
:101100000D34203451347534653420346134633403
:10111000633469346F346E3420346434653473342A
:1011200065346134203465346A346534633475342D
:1011300074346134723420340D3400342834333440
:1011400029342034533461346C346934723420349B
:10115000643465346C3420346D346F3464346F34EB
:101160002034553441345234543420340D34003456
:1011700028343134293420344D346F347634653496
:101180007234203473346534723476346F3473348B
:1011900020340D34003428343234293420344D3492
:1011A0006F3476346534723420346D346F34743473
:1011B0006F34723420340D3400340D342034323422
:1011C0003A34203449347A347134753469346534AE
:1011D00072346434613400340D34203461342E347C
:1011E000203453346534723476346F3420343134DF
:1011F00000340D34203462342E34203453346534BA
:10120000723476346F342034323400340D34203468
:1012100063342E34203453346534723476346F346E
:101220002034333400340D34203431343A34203413
:101230004434653472346534633468346134003462
:101240000D34203433343A34203444346534743427
:1012500065346E346534723400340D3420343234E5
:101260003A3420342D3439343034203400340D34C1
:10127000203431343A3420342D343434353420346D
:1012800000340D34203434343A342034393430349A
:10129000203400340D34203435343A34203434349E
:1012A0003534203400340D34203433343A3420348F
:1012B000303420340034FF1B652983137F188317D3
:1012C0000008840A0319FF0A08007F087F398A0092
:0A12D0000408840A0319FF0A8200D3
:101B48008312031395019B0109150800F000831205
:101B580003130C1EB02DB12DAB2D70089900080091
:101B68000A128A1170270A128A15831203139F1406
:101B7800B92D0A128A111228F1007108831203176D
:101B88008D00831603178C130C14831203170C088B
:101B9800F0007008F200720808008312031308149A
:101BA800E930F000F00BD62D8312031308101A3019
:101BB800F1000F30F000F00BDF2DF10BDF2D0800E6
:101BC800831203138814E930F000F00BE92D831217
:101BD800031388101A30F1000F30F000F00BF22DCB
:101BE800F10BF22D0800831203130815E930F000F9
:101BF800F00BFC2D8312031308111A30F1000F307B
:101C0800F000F00B052EF10B052E080083120313CC
:101C18000814D630F000102E112EF00B0F2E0000F5
:101C28008312031308101930F1000530F000F00B8F
:101C38001B2EF10B1B2E0800831203138814D630B9
:101C4800F000262E272EF00B252E000083120313FA
:101C580088101930F1000530F000F00B312EF10B2F
:101C6800312E0800831203130815D630F0003C2EDD
:101C78003D2EF00B3B2E0000831203130811193080
:101C8800F1000530F000F00B472EF10B472E08004D
:101C9800831203130814F930F000522EF00B512E62
:101CA800552E562E8312031308101930F1005830A0
:101CB800F000F00B5D2EF10B5D2E00000800831282
:101CC80003138814F930F000692EF00B682E6C2E7F
:101CD8006D2E8312031388101930F1005830F0006C
:101CE800F00B742EF10B742E0000080083120313FE
:101CF8000815F930F000802EF00B7F2E832E842EED
:101D08008312031308111930F1005830F000F00B5A
:101D18008B2EF10B8B2E000008008312031308147E
:101D28000330F1009730F000F00B982EF10B982E4D
:101D38009D2E8312031308101830F1005F30F00055
:101D4800F00BA42EF10BA42E0800831203138814A1
:101D58000330F1009730F000F00BB02EF10BB02EED
:101D6800B52E8312031388101830F1005F30F0008D
:101D7800F00BBC2EF10BBC2E0800831203130815C0
:101D88000330F1009730F000F00BC82EF10BC82E8D
:101D9800CD2E8312031308111830F1005F30F000C4
:101DA800F00BD42EF10BD42E08000430F0000030D4
:101DB800F100831203131E08F900FA017908F200F2
:101DC8007A08F3000A128A1599270A128A157008E8
:101DD8008312031395009B0109140800831203134F
:101DE80095010430F0000030F1001E08F900FA01F6
:101DF8007908F2007A08F3000A128A1599270A125C
:101E08008A157008831203139B0089140800831233
:101E180003130814F930F000112F122FF00B102FB4
:101E2800152F162F172F8312031308101830F100DF
:101E3800B230F000F00B1E2FF10B1E2F000008002F
:101E4800831203138814F930F0002A2F2B2FF00B7C
:101E5800292F2E2F2F2F302F83120313881018307D
:101E6800F100B230F000F00B372FF10B372F0000E4
:101E78000800831203130815F930F000432F442F8C
:101E8800F00B422F472F482F492F831203130811B5
:101E98001830F100B230F000F00B502FF10B502F3A
:101EA80000000800F1007008831203178D00710804
:101EB8008C00831603178C130C158B1355308D006B
:101EC800AA308D008C14831203130D1E6C2F6D2FF6
:101ED800672F0D12831603170C118B13080073302C
:101EE800F3007308F6007E2F77080A128A15AA25D0
:101EF8000A128A157208F4007108F300F10A03192E
:101F0800F20A740883120313FF00730884000A128C
:101F18008A155B210A128A15F5007508F7007708FB
:101F2800031D972F982F782F0800F601F11F9D2F7A
:101F38009E2FA52FF009F109F00A0319F10AF601FD
:101F4800F60AF31FA82FA92FB22FF209F309F20AF4
:101F58000319F30A0130F4007408F606F701F801D2
:101F6800700871040319B92FBA2FF12FF501F50A7A
:101F7800C82F01300310F00DF10DFF3E031DBE2FD9
:101F88000130F4007408F507F11FCB2FCC2FBD2FBB
:101F980001300310F70DF80DFF3E031DCD2F71081A
:101FA8007302031DD92F70087202031CDC2FDD2F6A
:101FB800E42F7008F2027108031CF303F30277148C
:101FC80001300310F10CF00CFF3E031DE52F01302A
:101FD800F502031DF02FF12FCC2F76080319F52FEA
:101FE800F62FFB2FF709F809F70A0319F80A7808FA
:081FF800F1007708F000080079
:04400E00D420FF3F7C
:00000001FF
