:020000040000FA
:060000000A128A110C280F
:10000800FE00030EFC000A08FD000A128A111F28D0
:100018000A128A110F2883120313A001A101A20159
:10002800A301A401A501A601A701A801A9018301B3
:100038000A128A11B02D831203130C1F24282528B5
:10004800A1291F0CF900790C0F39003A031D2D283E
:100058002E2874281F08C33904389F00061935282C
:1000680036283A2895019B0109159A2906183D2832
:100078003E2855280430F0000030F1001E08F90031
:10008800FA017908F2007A08F3000A128A11C823E3
:100098000A128A1170088312031395009B01091430
:1000A8009A29861858285928702895010430F00094
:1000B8000030F1001E08F900FA017908F2007A0808
:1000C800F3000A128A11C8230A128A1170088312CF
:1000D80003139B0089149A290910891009119A2978
:1000E8001F0CF900790C0F39013A031D7C287D2873
:1000F800D7281F08C33908389F001E08F900790857
:10010800A5003330250203188A288B2890280A1264
:100118008A118C250A128A1166308312031325026C
:10012800031897289828A32833302502031C9D28F4
:100138009E28A3280A128A110D250A128A119930BD
:100148008312031325020318AA28AB28B6286630A1
:100158002502031CB028B128B6280A128A11502596
:100168000A128A11CC308312031325020318BD2802
:10017800BE28C92899302502031CC328C428C928C9
:100188000A128A117E240A128A11CC3083120313B0
:100198002502031CD028D1289A290A128A11C724BB
:1001A8000A128A119A291F0CF900790C0F39023AA0
:1001B800031DDF28E0283A291F08C3390C389F009F
:1001C8001E08F9007908A400333024020318ED282A
:1001D800EE28F3280A128A1179250A128A11663044
:1001E8008312031324020318FA28FB280629333044
:1001F8002402031C0029012906290A128A11F6245F
:100208000A128A11993083120313240203180D2944
:100218000E29192966302402031C132914291929C7
:100228000A128A113A250A128A11CC308312031352
:1002380024020318202921292C2999302402031C7F
:10024800262927292C290A128A1165240A128A11BB
:10025800CC30831203132402031C332934299A292E
:100268000A128A11AF240A128A119A291F0CF9005E
:10027800790C0F39033A031D422943299A29C330BF
:100288009F051E08F9007908A300333023020318DC
:100298004E294F2954290A128A1166250A128A11F1
:1002A800663083120313230203185B295C2967292C
:1002B80033302302031C6129622967290A128A1133
:1002C800DF240A128A1199308312031323020318B8
:1002D8006E296F297A2966302302031C742975292F
:1002E8007A290A128A1124250A128A11CC3083121B
:1002F800031323020318812982298D2999302302A7
:10030800031C872988298D290A128A114C240A126C
:100318008A11CC30831203132302031C94299529D4
:100328009A290A128A1197240A128A11831203132E
:100338000C132130F900F90B9F290B1CA429A529BE
:100348004C2B831203138619AA29AB29DF2906131C
:1003580086161630F9007908F00025080A128A1165
:100368002F240A128A111730F9007908F000831235
:10037800031324080A128A112F240A128A1118302A
:10038800F9007908F0008312031323080A128A116E
:100398002F240A128A110330FB008A30FA005530E4
:1003A800F900F90BD529FA0BD529FB0BD529DC293E
:1003B800831203138612061AE229E3294B2B8612AD
:1003C800061716300A128A119F250A128A11F90097
:1003D800790883120313A20017300A128A119F2585
:1003E8000A128A11F900790883120313A100183040
:1003F8000A128A119F250A128A11F90079088312B4
:100408000313A0003330220203180B2A0C2A172AE0
:100418000A128A118C250A128A111E30F9007908ED
:1004280083120313A5006630220203181C2A1D2A12
:100438002E2A33302202031C222A232A2E2A0A12A9
:100448008A110D250A128A114630F900790883129B
:100458000313A500993022020318332A342A452AA7
:1004680066302202031C392A3A2A452A0A128A11BE
:1004780050250A128A118230F90079088312031371
:10048800A500CC30220203184A2A4B2A5C2A99304C
:100498002202031C502A512A5C2A0A128A117E243D
:1004A8000A128A11AA30F900790883120313A500E9
:1004B800CC302202031C612A622A6D2A0A128A1190
:1004C800C7240A128A11CD30F90079088312031360
:1004D800A500333021020318722A732A7E2A0A12D1
:1004E8008A1179250A128A111E30F90079088312B7
:1004F8000313A400663021020318832A842A952A4C
:1005080033302102031C892A8A2A952A0A128A1161
:10051800F6240A128A114630F90079088312031367
:10052800A4009930210203189A2A9B2AAC2A663023
:100538002102031CA02AA12AAC2A0A128A113A25F0
:100548000A128A116E30F900790883120313A40085
:10055800CC3021020318B12AB22AC32A99302102C9
:10056800031CB72AB82AC32A0A128A1165240A1258
:100578008A11AA30F900790883120313A400CC3039
:100588002102031CC82AC92AD42A0A128A11AF24B4
:100598000A128A11CD30F900790883120313A400D6
:1005A800333020020318D92ADA2AE52A0A128A11D6
:1005B80066250A128A111E30F9007908831203137E
:1005C800A300663020020318EA2AEB2AFC2A3330FB
:1005D8002002031CF02AF12AFC2A0A128A11DF24BD
:1005E8000A128A114630F900790883120313A3000E
:1005F800993020020318012B022B132B663020029E
:10060800031C072B082B132B0A128A1124250A1204
:100618008A118230F900790883120313A300CC30C1
:1006280020020318182B192B2A2B99302002031C9F
:100638001E2B1F2B2A2B0A128A114C240A128A11EC
:10064800AA30F900790883120313A300CC302002E2
:10065800031C2F2B302B3B2B0A128A1197240A12CA
:100668008A11CD30F900790883120313A3000B30E7
:10067800FB002630FA005D30F900F90B412BFA0B2C
:10068800412BFB0B412B482B8312031306130B1032
:100698007D088A007C0E8300FE0E7E0E09008316FC
:1006A80003130614861406158615061683160317F3
:1006B800081488140815881589018316031305146E
:1006C8008514051585158612061309108910091158
:1006D800081088100811881208138813811315143C
:1006E80095141515951595130F128F160F170F14CE
:1006F800C330831203139F05203083120313AA000B
:10070800AA0B842B0000831203131F179F131F14B7
:10071800831603139F139F121F12071587147D302A
:1007280092003F308312031397050F309D0417087A
:10073800F0390C3897000F309500CF3097050F30FF
:100748009B001D129D128C101210921412158C1CF5
:10075800AE2BAF2BAB2B8C1083160313071187100E
:100768000C17831203130C138B170B178316031321
:10077800961516168B150B10831203138501860127
:100788008701880189010800F601F11FCC2BCD2BC8
:10079800D42BF009F109F00A0319F10AF601F60A57
:1007A800F31FD72BD82BE12BF209F309F20A03190F
:1007B800F30A0130F4007408F606F701F80170082E
:1007C80071040319E82BE92B202CF501F50AF72B06
:1007D80001300310F00DF10DFF3E031DED2B01302C
:1007E800F4007408F507F11FFA2BFB2BEC2B0130F2
:1007F8000310F70DF80DFF3E031DFC2B7108730263
:10080800031D082C70087202031C0B2C0C2C132CD3
:100818007008F2027108031CF303F3027714013025
:100828000310F10CF00CFF3E031D142C0130F502EF
:10083800031D1F2C202CFB2B76080319242C252C98
:100848002A2CF709F809F70A0319F80A7808F100B9
:100858007708F0000800F1007008831203178D0074
:1008680071088C00831603178C130C158B135530E5
:100878008D00AA308D008C14831203130D1E452C95
:10088800462C402C0D12831603170C118B130800ED
:10089800831203130815F930F000522C532CF00B77
:1008A800512C562C572C582C83120313081118302E
:1008B800F100B230F000F00B5F2CF10B5F2C000060
:1008C8000800831203138814F930F0006B2C6C2C89
:1008D800F00B6A2C6F2C702C712C83120313881068
:1008E8001830F100B230F000F00B782CF10B782CB6
:1008F80000000800831203130814F930F000842C58
:10090800852CF00B832C882C892C8A2C83120313BA
:1009180008101830F100B230F000F00B912CF10BF8
:10092800912C000008008312031308150330F1000E
:100938009730F000F00B9E2CF10B9E2CA32C831209
:10094800031308111830F1005F30F000F00BAA2CE7
:10095800F10BAA2C08008312031388140330F1004A
:100968009730F000F00BB62CF10BB62CBB2C831291
:10097800031388101830F1005F30F000F00BC22C20
:10098800F10BC22C08008312031308140330F10082
:100998009730F000F00BCE2CF10BCE2CD32C831219
:1009A800031308101830F1005F30F000F00BDA2C58
:1009B800F10BDA2C0800831203130815F930F00044
:1009C800E52CF00BE42CE82CE92C83120313081116
:1009D8001930F1005830F000F00BF02CF10BF02C2E
:1009E80000000800831203138814F930F000FC2C6F
:1009F800F00BFB2CFF2C002D8312031388101930E9
:100A0800F1005830F000F00B072DF10B072D000016
:100A18000800831203130814F930F000132DF00BAB
:100A2800122D162D172D8312031308101930F100FB
:100A38005830F000F00B1E2DF10B1E2D00000800A1
:100A4800831203130815D630F0002A2D2B2DF00B36
:100A5800292D00008312031308111930F100053005
:100A6800F000F00B352DF10B352D08008312031320
:100A78008814D630F000402D412DF00B3F2D00009A
:100A88008312031388101930F1000530F000F00BC1
:100A98004B2DF10B4B2D0800831203130814D6308D
:100AA800F000562D572DF00B552D0000831203131F
:100AB80008101930F1000530F000F00B612DF10B32
:100AC800612D0800831203130815E930F000F00BBC
:100AD8006B2D8312031308111A30F1000F30F00048
:100AE800F00B742DF10B742D080083120313881476
:100AF800E930F000F00B7E2D8312031388101A30B2
:100B0800F1000F30F000F00B872DF10B872D080056
:100B1800831203130814E930F000F00B912D8312AF
:100B2800031308101A30F1000F30F000F00B9A2D63
:100B3800F10B9A2D0800F1007108831203178D003C
:100B4800831603178C130C14831203170C08F00078
:100B58007008F200720808000A128A1153230A1258
:100B68008A11831203139F14B52D0A128A110C28B7
:04400E00D420FF3F7C
:00000001FF
