:020000040000FA
:060000000A128A110C280F
:10000800FE00030EFB000A08FC000A128A111C28D5
:100018000A128A110F28FD0183120313A001A101FE
:10002800A201A301A401A50183010A128A11542B7C
:10003800831203130C1F21282228792A1F0CF90088
:10004800790C0F39003A031D2A282B2871281F081C
:10005800C33904389F0006193228332837289501F8
:100068009B010915722A06183A283B2852280430A1
:10007800F0000030F1001E08F900FA017908F200DA
:100088007A08F3000A128A11ED220A128A117008FE
:100098008312031395009B010914722A86185528A8
:1000A80056286D2895010430F0000030F1001E0834
:1000B800F900FA017908F2007A08F3000A128A11A5
:1000C800ED220A128A117008831203139B00891407
:1000D800722A091089100911722A1F0CF900790C6B
:1000E8000F39013A031D79287A281D291F08C339B9
:1000F80008389F001E08F9007908FD0033307D029A
:1001080003188728882898280814E930F900F90B7B
:100118008B288312031308101A30FA000F30F900E5
:10012800F90B9428FA0B942866307D0203189D2851
:100138009E28BA2833307D02031CA328A428BA2895
:10014800831203130814F930F900AA28F90BA92817
:10015800AD28AE288312031308101930FA0058305E
:10016800F900F90BB528FA0BB528000099307D0283
:100178000318BF28C028DB2866307D02031CC52869
:10018800C628DB28831203130814D630F900CC28BC
:10019800CD28F90BCB28000083120313081019305F
:1001A800FA000530F900F90BD728FA0BD728CC301C
:1001B8007D020318E028E128FF2899307D02031CFE
:1001C800E628E728FF28831203130814F930F900FA
:1001D800ED28EE28F90BEC28F128F228F3288312F1
:1001E800031308101830FA00B230F900F90BFA2896
:1001F800FA0BFA280000CC307D02031C04290529DB
:10020800722A8312031308140330FA009730F90096
:10021800F90B0C29FA0B0C29112983120313081066
:100228001830FA005F30F900F90B1829FA0B182971
:10023800722A1F0CF900790C0F39023A031D25297F
:100248002629C9291F08C3390C389F001E08F90040
:100258007908A100333021020318332934294429AD
:100268008814E930F900F90B372983120313881031
:100278001A30FA000F30F900F90B4029FA0B40291F
:10028800663083120313210203184B294C2966296F
:1002980033302102031C5129522966298814F93068
:1002A800F9005629F90B552959295A29831203139C
:1002B80088101930FA005830F900F90B6129FA0B47
:1002C80061290000993083120313210203186D2954
:1002D8006E29872966302102031C7329742987290E
:1002E8008814D630F90078297929F90B7729000084
:1002F8008312031388101930FA000530F900F90B3E
:100308008329FA0B8329CC308312031321020318A3
:100318008E298F29AB2999302102031C942995290C
:10032800AB298814F930F90099299A29F90B9829E9
:100338009D299E299F298312031388101830FA00DB
:10034800B230F900F90BA629FA0BA6290000CC3027
:10035800831203132102031CB229B329722A8814B9
:100368000330FA009730F900F90BB829FA0BB829CD
:10037800BD298312031388101830FA005F30F90082
:10038800F90BC429FA0BC429722A1F0CF900790C3D
:100398000F39033A031DD129D229722AC3309F0588
:1003A8001E08F9007908A000333020020318DD295F
:1003B800DE29EE290815E930F900F90BE129831245
:1003C800031308111A30FA000F30F900F90BEA2963
:1003D800FA0BEA2966308312031320020318F52961
:1003E800F629102A33302002031CFB29FC29102A85
:1003F8000815F930F900002AF90BFF29032A042A05
:100408008312031308111930FA005830F900F90B58
:100418000B2AFA0B0B2A00009930831203132002CF
:100428000318172A182A312A66302002031C1D2AAD
:100438001E2A312A0815D630F900222A232AF90B58
:10044800212A00008312031308111930FA0005301D
:10045800F900F90B2D2AFA0B2D2ACC30831203133D
:1004680020020318382A392A552A99302002031CF9
:100478003E2A3F2A552A0815F930F900432A442A0A
:10048800F90B422A472A482A492A831203130811DA
:100498001830FA00B230F900F90B502AFA0B502A3A
:1004A8000000CC30831203132002031C5C2A5D2A4F
:1004B800722A08150330FA009730F900F90B622AFE
:1004C800FA0B622A672A8312031308111830FA00FC
:1004D8005F30F900F90B6E2AFA0B6E2A83120313A8
:1004E8000C132130F900F90B772A7C088A007B0E5F
:1004F8008300FE0E7E0E090083160313061486146D
:100508000615861506168316031708148814081589
:100518008815890183160313051485140515851597
:10052800861206130910891009110810881008117D
:100538008812081388138113151495141515951529
:1005480095130F128F160F170F14C330831203134E
:100558009F05203083120313A600A60BB12A0000C2
:10056800831203131F179F131F14831603139F135C
:100578009F121F12071587147D3092003F30831297
:10058800031397050F309D041708F0390C389700AE
:100598000F309500CF3097050F309B001D129D122C
:1005A8008C101210921412158C1CDB2ADC2AD82A03
:1005B8008C1083160313071187100C17831203136B
:1005C8000C138B170B178501860187018801890198
:1005D8000800F601F11FF12AF22AF92AF009F109B7
:1005E800F00A0319F10AF601F60AF31FFC2AFD2A9C
:1005F800062BF209F309F20A0319F30A0130F40091
:100608007408F606F701F8017008710403190D2B38
:100618000E2B452BF501F50A1C2B01300310F00DAC
:10062800F10DFF3E031D122B0130F4007408F5078D
:10063800F11F1F2B202B112B01300310F70DF80D84
:10064800FF3E031D212B71087302031D2D2B70081B
:100658007202031C302B312B382B7008F202710800
:10066800031CF303F302771401300310F10CF00CB0
:10067800FF3E031D392B0130F502031D442B452B8A
:10068800202B76080319492B4A2B4F2BF709F80919
:10069800F70A0319F80A7808F1007708F00008004B
:1006A8000A128A1180220A128A11831203139F14D4
:0806B800592B0A128A110C28CB
:04400E00D420FF3F7C
:00000001FF
